{
  "contractName": "SmartEnergy",
  "abi": [
    {
      "anonymous": false,
      "inputs": [
        {
          "indexed": false,
          "name": "generated_by",
          "type": "address"
        }
      ],
      "name": "energyGenerated",
      "type": "event"
    },
    {
      "anonymous": false,
      "inputs": [
        {
          "indexed": false,
          "name": "generated_by",
          "type": "address"
        },
        {
          "indexed": false,
          "name": "energy_value",
          "type": "uint256"
        }
      ],
      "name": "energyMoved",
      "type": "event"
    },
    {
      "constant": false,
      "inputs": [
        {
          "name": "pusher",
          "type": "address"
        },
        {
          "name": "energy_pushed",
          "type": "uint256"
        }
      ],
      "name": "pushEnergy",
      "outputs": [
        {
          "name": "check",
          "type": "bool"
        }
      ],
      "payable": false,
      "stateMutability": "nonpayable",
      "type": "function"
    },
    {
      "constant": false,
      "inputs": [
        {
          "name": "requestor",
          "type": "address"
        },
        {
          "name": "energy_requested",
          "type": "uint256"
        }
      ],
      "name": "requestEnergy",
      "outputs": [
        {
          "name": "check",
          "type": "bool"
        }
      ],
      "payable": false,
      "stateMutability": "nonpayable",
      "type": "function"
    },
    {
      "constant": true,
      "inputs": [
        {
          "name": "user",
          "type": "address"
        }
      ],
      "name": "getBalance",
      "outputs": [
        {
          "name": "val",
          "type": "uint256"
        }
      ],
      "payable": false,
      "stateMutability": "view",
      "type": "function"
    },
    {
      "constant": true,
      "inputs": [
        {
          "name": "user",
          "type": "address"
        }
      ],
      "name": "getCoins",
      "outputs": [
        {
          "name": "val",
          "type": "uint256"
        }
      ],
      "payable": false,
      "stateMutability": "view",
      "type": "function"
    }
  ],
  "bytecode": "0x606060405260008055341561001357600080fd5b610765806100226000396000f300606060405260043610610062576000357c0100000000000000000000000000000000000000000000000000000000900463ffffffff16806323eac4f814610067578063afb09957146100c1578063b752c7631461011b578063f8b2cb4f14610168575b600080fd5b341561007257600080fd5b6100a7600480803573ffffffffffffffffffffffffffffffffffffffff169060200190919080359060200190919050506101b5565b604051808215151515815260200191505060405180910390f35b34156100cc57600080fd5b610101600480803573ffffffffffffffffffffffffffffffffffffffff1690602001909190803590602001909190505061037a565b604051808215151515815260200191505060405180910390f35b341561012657600080fd5b610152600480803573ffffffffffffffffffffffffffffffffffffffff169060200190919050506106a7565b6040518082815260200191505060405180910390f35b341561017357600080fd5b61019f600480803573ffffffffffffffffffffffffffffffffffffffff169060200190919050506106f0565b6040518082815260200191505060405180910390f35b60007f342f151adf18870721affdf18df8948582950e51c00d791db44c0e057b0dd07183604051808273ffffffffffffffffffffffffffffffffffffffff1673ffffffffffffffffffffffffffffffffffffffff16815260200191505060405180910390a181600160008573ffffffffffffffffffffffffffffffffffffffff1673ffffffffffffffffffffffffffffffffffffffff1681526020019081526020016000206000828254019250508190555081600080828254019250508190555060048281151561028257fe5b04600260008573ffffffffffffffffffffffffffffffffffffffff1673ffffffffffffffffffffffffffffffffffffffff168152602001908152602001600020819055507fdde020baead9c699d42f1ce102835db30ad3117f37c4e52d89162d0f8b00b73e83600160008673ffffffffffffffffffffffffffffffffffffffff1673ffffffffffffffffffffffffffffffffffffffff16815260200190815260200160002054604051808373ffffffffffffffffffffffffffffffffffffffff1673ffffffffffffffffffffffffffffffffffffffff1681526020018281526020019250505060405180910390a16001905092915050565b60008060005483111561038c57600080fd5b82600160008673ffffffffffffffffffffffffffffffffffffffff1673ffffffffffffffffffffffffffffffffffffffff168152602001908152602001600020540390506000811115610493578260008082825403925050819055506004838115156103f457fe5b04600260008673ffffffffffffffffffffffffffffffffffffffff1673ffffffffffffffffffffffffffffffffffffffff1681526020019081526020016000206000828254039250508190555082600160008673ffffffffffffffffffffffffffffffffffffffff1673ffffffffffffffffffffffffffffffffffffffff168152602001908152602001600020600082825403925050819055506105f2565b60008110156105f157806000039050828110156104ba578260008082825403925050819055505b6002818115156104c657fe5b04600260008673ffffffffffffffffffffffffffffffffffffffff1673ffffffffffffffffffffffffffffffffffffffff168152602001908152602001600020600082825403925050819055506004600160008673ffffffffffffffffffffffffffffffffffffffff1673ffffffffffffffffffffffffffffffffffffffff1681526020019081526020016000205481151561055e57fe5b04600260008673ffffffffffffffffffffffffffffffffffffffff1673ffffffffffffffffffffffffffffffffffffffff168152602001908152602001600020600082825403925050819055506000600160008673ffffffffffffffffffffffffffffffffffffffff1673ffffffffffffffffffffffffffffffffffffffff168152602001908152602001600020819055505b5b7fdde020baead9c699d42f1ce102835db30ad3117f37c4e52d89162d0f8b00b73e84600160008773ffffffffffffffffffffffffffffffffffffffff1673ffffffffffffffffffffffffffffffffffffffff16815260200190815260200160002054604051808373ffffffffffffffffffffffffffffffffffffffff1673ffffffffffffffffffffffffffffffffffffffff1681526020018281526020019250505060405180910390a1600191505092915050565b6000600260008373ffffffffffffffffffffffffffffffffffffffff1673ffffffffffffffffffffffffffffffffffffffff168152602001908152602001600020549050919050565b6000600160008373ffffffffffffffffffffffffffffffffffffffff1673ffffffffffffffffffffffffffffffffffffffff1681526020019081526020016000205490509190505600a165627a7a723058201aa21a0ec0d62b429515f8b3f8378e55672ef9ce482816413435f3a96f22f9f00029",
  "source": "pragma solidity ^0.4.17;\n\ncontract SmartEnergy {\n    uint grid_balance = 0;\n    mapping (address => uint) balance;\n    mapping (address => uint) coins;\n    event energyGenerated(address generated_by);\n    event energyMoved(address generated_by, uint energy_value);\n\n    function pushEnergy(address pusher, uint energy_pushed) returns (bool check){\n      energyGenerated(pusher); // not sure about this event - should be called by pi based on node values only maybe\n      balance[pusher] += energy_pushed;\n      grid_balance += energy_pushed;\n      coins[pusher] = energy_pushed / 4;\n      energyMoved(pusher, balance[pusher]);\n      return true;\n    }\n\n    function requestEnergy(address requestor, uint energy_requested) returns (bool check){\n        uint final_balance;\n        if(energy_requested > grid_balance)\n          throw;\n        final_balance = balance[requestor] - energy_requested;\n        if (final_balance > 0){\n          grid_balance -= energy_requested;\n          coins[requestor] -= energy_requested / 4;\n          balance[requestor] -= energy_requested;\n        }\n\n        else if(final_balance < 0){\n            final_balance = 0 - final_balance;\n            if(final_balance < energy_requested)\n              grid_balance -= energy_requested;\n              coins[requestor] -= final_balance / 2;\n              coins[requestor] -= balance[requestor] / 4;\n              balance[requestor] = 0;\n\n        }\n        energyMoved(requestor, balance[requestor]);\n        return true;\n    }\n\n    function getBalance(address user) constant returns (uint val) {\n      return balance[user];\n    }\n\n    function getCoins(address user) constant returns (uint val){\n      return coins[user];\n    }\n}\n",
  "sourcePath": "/home/chethan/Documents/Blockchain/projects/token/contracts/SmartEnergy.sol",
  "compiler": {
    "name": "solc",
    "version": "0.4.19+commit.c4cbbb05.Emscripten.clang"
  },
  "schemaVersion": "2.0.0",
  "updatedAt": "2018-03-24T02:56:08.974Z"
}